S01D0000554152545F48414C5F546573745F6D6F64756C65732E7372656340
S11300000C9434000C9451000C9451000C94510045
S11300100C9451000C9451000C9451000C94510018
S11300200C9451000C9451000C9451000C94510008
S11300300C9451000C9451000C9451000C945100F8
S11300400C9451000C9451000C94BB000C946E0061
S11300500C9451000C9451000C9451000C945100D8
S11300600C9451000C94510011241FBECFEFD4E026
S1130070DEBFCDBF11E0A0E0B1E0EEEEF3E002C0E0
S113008005900D92AA32B107D9F721E0AAE2B1E0B6
S113009001C01D92A13FB207E1F70E94F1000C9448
S11300A0F5010C940000E0912B0121E02E0F203487
S11300B031F420E004C090912E0194FD0EC0909183
S11300C02A019217C1F3F0E0E05DFE4F8083209394
S11300D02B0162E080E00E94A00108951F920F921C
S11300E00FB60F9211242F933F934F935F936F9307
S11300F07F938F939F93AF93BF93EF93FF938091DD
S11301002A01E82FF0E0E05DFE4F90819093C60055
S11301108F5F803409F480E080932A0190912B0151
S1130120891304C062E080E00E94B801FF91EF915E
S1130130BF91AF919F918F917F916F915F914F91FB
S11301403F912F910F900FBE0F901F901895909193
S11301502C0180912D01981761F0E92FF0E0E0590E
S1130160FE4F80819F5F903809F490E090932C01BA
S113017008958FEF08951F920F920FB60F921124D6
S11301802F938F939F93EF93FF932091C600E09159
S11301902D0181E08E0F803809F480E090912C01CC
S11301A0891731F0F0E0E059FE4F208380932D0150
S11301B0FF91EF919F918F912F910F900FBE0F9010
S11301C01F901895CF93DF93EC018881882331F039
S11301D021960E94530089918111FBCFDF91CF9129
S11301E008950E94D0010E94100161E080E00E9405
S11301F0A00180E091E00E94E20006EC10E0C0EC77
S1130200D0E009C0F8018083888185FFFDCF89E1B2
S113021091E00E94E2000E94A7008F3FE1F3F2CF39
S1130220CF93DF93FC018181813031F4A1ECB0E004
S11302308C9188618C9305C0A1ECB0E08C91877E91
S11302408C93848181110EC0A2ECB0E08C918C7FE0
S11302508C93C1ECD0E088818B7F88838C91836000
S11302608C930CC0813051F4A2ECB0E08C9183608B
S11302708C93A1ECB0E08C9184608C938781813065
S113028019F48FB780688FBF22813381203885E2CB
S1130290380730F1C901A0E0B0E09C01AD01220FA4
S11302A0331F441F551F220F331F441F551F60E087
S11302B074E284EF90E00E94D301DA01C90101974E
S11302C0A109B109AC01BD0176956795579547958C
S11302D0842F952FE0ECF0E020812260208329C058
S11302E0C901A0E0B0E0880F991FAA1FBB1F880FA7
S11302F0991FAA1FBB1F9C01AD01220F331F441F6E
S1130300551F60E074E284EF90E00E94D301DA01AB
S1130310C9010197A109B109AC01BD0176956795A1
S113032057954795842F952FE0ECF0E020812D7FA1
S113033020839093C5008093C400DF91CF910895EA
S1130340613031F4E1ECF0E08081806880830895CD
S1130350611106C0E1ECF0E080818064808308953F
S1130360623029F4E1ECF0E08081806280830895BA
S1130370613031F4E1ECF0E080818F77808308957F
S1130380611106C0E1ECF0E080818F7B80830895E9
S1130390623029F4E1ECF0E080818F7D8083089560
S11303A081E291E00895A1E21A2EAA1BBB1BFD0174
S11303B00DC0AA1FBB1FEE1FFF1FA217B307E40740
S11303C0F50720F0A21BB30BE40BF50B661F771F98
S11303D0881F991F1A9469F7609570958095909578
S11103E09B01AC01BD01CF010895F894FFCF3D
S11303EE486169204752424C2076302E396A2042A9
S11303FE75696C6420310D0A000D0A4F4B3E0D0ACF
S10D040E0000018025000100010038
S9030000FC
