:100000000C9434000C9449000C9449000C94490061
:100010000C9449000C9449000C9449000C9449003C
:100020000C9449000C9449000C9449000C9449002C
:100030000C9449000C9449000C9449000C9449001C
:100040000C9449000C9449000C9449000C9449000C
:100050000C9449000C9449000C9449000C944900FC
:100060000C9449000C94490011241FBECFEFD4E03A
:10007000DEBFCDBF11E0A0E0B1E0EAEFF1E002C0E9
:1000800005900D92AC30B107D9F70E94DC000C94BA
:10009000FB000C940000EF92FF920F931F936130CE
:1000A00001F5E82FE695E695E695F0E0EE0FFF1FE7
:1000B000E050FF4F0190F081E02D2081877041E0FA
:1000C00050E060E070E07A018B0104C0EE0CFF1C90
:1000D000001F111F8A95D2F7D801C701822B808398
:1000E00020C0E82FE695E695E695F0E0EE0FFF1FBD
:1000F000E050FF4F0190F081E02D2081877041E0BA
:1001000050E060E070E07A018B0104C0EE0CFF1C4F
:10011000001F111F8A95D2F7D801C701809582234D
:1001200080831F910F91FF90EF900895EF92FF92BF
:100130000F931F93E82FE695E695E695877061117A
:100140001BC0F0E0EE0FFF1FEA5FFE4F0190F08151
:10015000E02D208141E050E060E070E07A018B0109
:1001600004C0EE0CFF1C001F111F8A95D2F7D801A6
:10017000C701822B80831BC0F0E0EE0FFF1FEA5FF8
:10018000FE4F0190F081E02D208141E050E060E0E1
:1001900070E07A018B0104C0EE0CFF1C001F111FE0
:1001A0008A95D2F7D801C7018095822380831F9159
:1001B0000F91FF90EF90089560E084E00E94960018
:1001C00061E084E00E944B002FE38DE093E021503A
:1001D00080409040E1F700C0000060E084E00E94B1
:1001E0004B002FE38DE093E0215080409040E1F7F9
:0A01F00000C00000E5CFF894FFCF37
:0C01FA00250028002B00240027002A000C
:00000001FF
